{
  "_format": "hh-sol-artifact-1",
  "contractName": "BountyEscrow",
  "sourceName": "contracts/Escrow.sol",
  "abi": [
    {
      "inputs": [
        {
          "internalType": "address",
          "name": "_platform",
          "type": "address"
        }
      ],
      "stateMutability": "nonpayable",
      "type": "constructor"
    },
    {
      "inputs": [],
      "name": "AlreadyAssigned",
      "type": "error"
    },
    {
      "inputs": [],
      "name": "AlreadyFunded",
      "type": "error"
    },
    {
      "inputs": [],
      "name": "BountyNotFunded",
      "type": "error"
    },
    {
      "inputs": [],
      "name": "FeeTransferFailed",
      "type": "error"
    },
    {
      "inputs": [],
      "name": "InvalidPlatformAddress",
      "type": "error"
    },
    {
      "inputs": [],
      "name": "NoEthSent",
      "type": "error"
    },
    {
      "inputs": [],
      "name": "NoHunter",
      "type": "error"
    },
    {
      "inputs": [],
      "name": "NotApproved",
      "type": "error"
    },
    {
      "inputs": [],
      "name": "NotAssigned",
      "type": "error"
    },
    {
      "inputs": [],
      "name": "OnlyOrgCanApprove",
      "type": "error"
    },
    {
      "inputs": [],
      "name": "PaymentFailed",
      "type": "error"
    },
    {
      "inputs": [],
      "name": "ReentrancyGuardReentrantCall",
      "type": "error"
    },
    {
      "anonymous": false,
      "inputs": [
        {
          "indexed": true,
          "internalType": "uint256",
          "name": "bountyId",
          "type": "uint256"
        },
        {
          "indexed": true,
          "internalType": "address",
          "name": "org",
          "type": "address"
        }
      ],
      "name": "BountyCreated",
      "type": "event"
    },
    {
      "anonymous": false,
      "inputs": [
        {
          "indexed": true,
          "internalType": "uint256",
          "name": "bountyId",
          "type": "uint256"
        },
        {
          "indexed": false,
          "internalType": "uint256",
          "name": "amount",
          "type": "uint256"
        }
      ],
      "name": "BountyFunded",
      "type": "event"
    },
    {
      "anonymous": false,
      "inputs": [
        {
          "indexed": true,
          "internalType": "uint256",
          "name": "bountyId",
          "type": "uint256"
        },
        {
          "indexed": true,
          "internalType": "address",
          "name": "hunter",
          "type": "address"
        }
      ],
      "name": "HunterAssigned",
      "type": "event"
    },
    {
      "anonymous": false,
      "inputs": [
        {
          "indexed": true,
          "internalType": "uint256",
          "name": "bountyId",
          "type": "uint256"
        },
        {
          "indexed": true,
          "internalType": "address",
          "name": "hunter",
          "type": "address"
        },
        {
          "indexed": false,
          "internalType": "uint256",
          "name": "amount",
          "type": "uint256"
        }
      ],
      "name": "PaymentReleased",
      "type": "event"
    },
    {
      "anonymous": false,
      "inputs": [
        {
          "indexed": true,
          "internalType": "uint256",
          "name": "bountyId",
          "type": "uint256"
        },
        {
          "indexed": false,
          "internalType": "uint256",
          "name": "fee",
          "type": "uint256"
        }
      ],
      "name": "PlatformFeePaid",
      "type": "event"
    },
    {
      "anonymous": false,
      "inputs": [
        {
          "indexed": true,
          "internalType": "uint256",
          "name": "bountyId",
          "type": "uint256"
        }
      ],
      "name": "SolutionApproved",
      "type": "event"
    },
    {
      "inputs": [
        {
          "internalType": "uint256",
          "name": "bountyId",
          "type": "uint256"
        }
      ],
      "name": "approveSolution",
      "outputs": [],
      "stateMutability": "nonpayable",
      "type": "function"
    },
    {
      "inputs": [
        {
          "internalType": "uint256",
          "name": "bountyId",
          "type": "uint256"
        }
      ],
      "name": "assignHunter",
      "outputs": [],
      "stateMutability": "nonpayable",
      "type": "function"
    },
    {
      "inputs": [
        {
          "internalType": "uint256",
          "name": "",
          "type": "uint256"
        }
      ],
      "name": "bounties",
      "outputs": [
        {
          "internalType": "address",
          "name": "org",
          "type": "address"
        },
        {
          "internalType": "address",
          "name": "hunter",
          "type": "address"
        },
        {
          "internalType": "uint128",
          "name": "amount",
          "type": "uint128"
        },
        {
          "internalType": "enum BountyEscrow.BountyStatus",
          "name": "status",
          "type": "uint8"
        }
      ],
      "stateMutability": "view",
      "type": "function"
    },
    {
      "inputs": [
        {
          "internalType": "uint256",
          "name": "bountyId",
          "type": "uint256"
        }
      ],
      "name": "fundBounty",
      "outputs": [],
      "stateMutability": "payable",
      "type": "function"
    },
    {
      "inputs": [],
      "name": "platform",
      "outputs": [
        {
          "internalType": "address",
          "name": "",
          "type": "address"
        }
      ],
      "stateMutability": "view",
      "type": "function"
    }
  ],
  "bytecode": "0x60a0604052346200003f576200001e62000018620000e3565b62000121565b6040516109ae620001b4823960805181818160be01526107b001526109ae90f35b600080fd5b634e487b7160e01b600052604160045260246000fd5b90601f01601f191681019081106001600160401b038211176200007c57604052565b62000044565b90620000996200009160405190565b92836200005a565b565b6001600160a01b031690565b90565b620000b5816200009b565b036200003f57565b905051906200009982620000aa565b906020828203126200003f57620000a791620000bd565b620000a762000b6280380380620000fa8162000082565b928339810190620000cc565b6200009b620000a7620000a79290565b620000a79062000106565b6200012b6200019d565b620001416200013b600062000116565b6200009b565b6200014c826200009b565b146200015757608052565b6040516344c7ef3760e11b8152600490fd5b620000a7620000a7620000a79290565b620000a7600162000169565b90620000a7620000a7620001999262000169565b9055565b62000099620001ab62000179565b60006200018556fe6080604052600436101561001257600080fd5b60003560e01c80634bde38c81461006257806364d607661461005d5780639846f8e214610058578063c52b38cf146100535763dc2f8744036100675761025e565b610127565b61010f565b6100f7565b6100a5565b600080fd5b600091031261006757565b6001600160a01b031690565b90565b61008f90610077565b9052565b6020810192916100a39190610086565b565b34610067576100b536600461006c565b604051806100e37f000000000000000000000000000000000000000000000000000000000000000082610093565b0390f35b9060208282031261006757503590565b61010a6101053660046100e7565b610352565b604051005b346100675761010a6101223660046100e7565b61055f565b346100675761010a61013a3660046100e7565b610484565b6100836100836100839290565b906101569061013f565b600052602052604060002090565b6100839054610077565b610083905b6001600160801b031690565b610083905461016e565b6100839060801c60ff1690565b6100839054610189565b6101ab90600161014c565b906101b582610164565b916101c260018201610164565b9161008360026101d381850161017f565b9301610196565b634e487b7160e01b600052602160045260246000fd5b600511156101fa57565b6101da565b906100a3826101f0565b610083906101ff565b61008f90610209565b6102576100a39461024760609498979561023d608086019a6000870190610086565b6020850190610086565b6001600160801b03166040830152565b0190610212565b34610067576100e36102796102743660046100e7565b6101a0565b9061028694929460405190565b9485948561021b565b906001600160a01b03905b9181191691161790565b61008390610077906001600160a01b031682565b610083906102a4565b610083906102b8565b906102da6100836102e1926102c1565b825461028f565b9055565b6101736100836100839290565b906001600160801b039061029a565b61008390610173906001600160801b031682565b906103256100836102e192610301565b82546102f2565b9060ff60801b9060801b61029a565b9061034b6100836102e192610209565b825461032c565b3460009161035f8361013f565b821461045c57600192610375610083838661014c565b600281019461038386610196565b61039561038f856101ff565b916101ff565b03610446576103f8956103af6103c69333958691016102ca565b6103c16103bb876102e5565b82610315565b61033b565b6103f07fa42a102b7be732c6c110f2a200de7ae4a49832e42c61c6c194cf1c94fbc5042e9261013f565b9384916102c1565b9161040260405190565b600090a36104417f1c39a31c24a302017459c2112dda7f9324a0952189c607e90effbbecda960d5e9161043460405190565b9182918290815260200190565b0390a2565b604051635adf638760e01b8152600490fd5b0390fd5b60405163717e6b7b60e01b8152600490fd5b6100776100836100839290565b6100839061046e565b6001610493610083838361014c565b906104a060028301610196565b6104ac61038f836101ff565b0361054d578101906104bd82610164565b6104d86104d26104cd600061047b565b610077565b91610077565b0361053b576104f6906104ec3380946102ca565b600280910161033b565b6105296105237f07773e4d2296ca7c4e54ff2ad70c370b2d5cce412f3c61ee9aea1815d6e392569361013f565b916102c1565b9161053360405190565b80805b0390a3565b604051639688dc5160e01b8152600490fd5b604051639bce206360e01b8152600490fd5b60019061056f610083828461014c565b91336105806104d26104cd86610164565b036106385761059160028401610196565b906002916105a161038f846101ff565b03610626576105b1908401610164565b6105c16104d26104cd600061047b565b14610614576100a3926105d7916003910161033b565b7f50d89681bd2e6a16c3d54291d2f5c15c18868432b866b15a226269e4285793a66106018261013f565b9061060b60405190565b600090a26108e1565b60405163760064a160e01b8152600490fd5b60405163689f0d8360e01b8152600490fd5b6040516342b0692560e01b8152600490fd5b61065b90610656610926565b61073c565b6100a3610966565b6100839081906001600160801b031681565b634e487b7160e01b600052601260045260246000fd5b8115610695570490565b610675565b634e487b7160e01b600052604160045260246000fd5b90601f01601f191681019081106001600160401b038211176106d157604052565b61069a565b906100a36106e360405190565b92836106b0565b6001600160401b0381116106d157602090601f01601f19160190565b90610718610713836106ea565b6106d6565b918252565b3d156107375761072c3d610706565b903d6000602084013e565b606090565b90600161074c610083848361014c565b90600282019061075b82610196565b61076861038f60036101ff565b036108cf5761077e6107798361017f565b610663565b9261078b6004809461033b565b6107a76107a161079b601461013f565b8661068b565b80950390565b936107ed6000807f00000000000000000000000000000000000000000000000000000000000000006107d860405190565b8581805b03925af16107e861071d565b501590565b6108b05761082d9495966108217f93e7aaa64db1f3164fb844c7465be63c3d09a211e1307c3fe2a96a3f585d44159161013f565b95869261043460405190565b0390a2019061084c60008061084185610164565b6040518881806107dc565b610891575061085a90610164565b6105366108877f21d71db5be59bb9fa133895586b7404307dd33fb93b16db09dc6f1d9d7d231b0926102c1565b9361043460405190565b6104589061089e60405190565b6307a4ced160e51b8152918291820190565b610458846108bd60405190565b634033e4e360e01b8152918291820190565b60405163c19f17a960e01b8152600490fd5b6100a39061064a565b6100839081565b61008390546108ea565b610083600261013f565b906000199061029a565b9061091f6100836102e19261013f565b8254610905565b61093060006108f1565b6109386108fb565b90811461094a576100a390600061090f565b604051633ee5aeb560e01b8152600490fd5b610083600161013f565b6100a361097161095c565b600061090f56fea264697066735822122088915e26930f168f3a15554e0c059dcf53a829e161f3810a6d75f731f924a48164736f6c63430008140033",
  "linkReferences": {},
  "deployedLinkReferences": {}
}