{
  "_format": "hh-sol-artifact-1",
  "contractName": "BountyEscrow",
  "sourceName": "contracts/Escrow.sol",
  "abi": [
    {
      "inputs": [
        {
          "internalType": "address",
          "name": "_platform",
          "type": "address"
        }
      ],
      "stateMutability": "nonpayable",
      "type": "constructor"
    },
    {
      "inputs": [],
      "name": "AlreadyAssigned",
      "type": "error"
    },
    {
      "inputs": [],
      "name": "AlreadyFunded",
      "type": "error"
    },
    {
      "inputs": [],
      "name": "AlreadyRefunded",
      "type": "error"
    },
    {
      "inputs": [],
      "name": "BountyNotFunded",
      "type": "error"
    },
    {
      "inputs": [],
      "name": "CannotRefundAssignedBounty",
      "type": "error"
    },
    {
      "inputs": [],
      "name": "FeeTransferFailed",
      "type": "error"
    },
    {
      "inputs": [],
      "name": "HunterMismatch",
      "type": "error"
    },
    {
      "inputs": [],
      "name": "InvalidPlatformAddress",
      "type": "error"
    },
    {
      "inputs": [],
      "name": "NoEthSent",
      "type": "error"
    },
    {
      "inputs": [],
      "name": "NoHunter",
      "type": "error"
    },
    {
      "inputs": [],
      "name": "NotApproved",
      "type": "error"
    },
    {
      "inputs": [],
      "name": "NotAssigned",
      "type": "error"
    },
    {
      "inputs": [],
      "name": "OnlyOrgCanApprove",
      "type": "error"
    },
    {
      "inputs": [],
      "name": "OnlyOrgCanRefund",
      "type": "error"
    },
    {
      "inputs": [],
      "name": "PaymentFailed",
      "type": "error"
    },
    {
      "inputs": [],
      "name": "ReentrancyGuardReentrantCall",
      "type": "error"
    },
    {
      "inputs": [],
      "name": "RefundFailed",
      "type": "error"
    },
    {
      "anonymous": false,
      "inputs": [
        {
          "indexed": true,
          "internalType": "uint256",
          "name": "bountyId",
          "type": "uint256"
        },
        {
          "indexed": true,
          "internalType": "address",
          "name": "org",
          "type": "address"
        }
      ],
      "name": "BountyCreated",
      "type": "event"
    },
    {
      "anonymous": false,
      "inputs": [
        {
          "indexed": true,
          "internalType": "uint256",
          "name": "bountyId",
          "type": "uint256"
        },
        {
          "indexed": false,
          "internalType": "uint256",
          "name": "amount",
          "type": "uint256"
        }
      ],
      "name": "BountyFunded",
      "type": "event"
    },
    {
      "anonymous": false,
      "inputs": [
        {
          "indexed": true,
          "internalType": "uint256",
          "name": "bountyId",
          "type": "uint256"
        },
        {
          "indexed": true,
          "internalType": "address",
          "name": "org",
          "type": "address"
        },
        {
          "indexed": false,
          "internalType": "uint256",
          "name": "amount",
          "type": "uint256"
        }
      ],
      "name": "BountyRefunded",
      "type": "event"
    },
    {
      "anonymous": false,
      "inputs": [
        {
          "indexed": true,
          "internalType": "uint256",
          "name": "bountyId",
          "type": "uint256"
        },
        {
          "indexed": true,
          "internalType": "address",
          "name": "hunter",
          "type": "address"
        }
      ],
      "name": "HunterAssigned",
      "type": "event"
    },
    {
      "anonymous": false,
      "inputs": [
        {
          "indexed": true,
          "internalType": "uint256",
          "name": "bountyId",
          "type": "uint256"
        },
        {
          "indexed": true,
          "internalType": "address",
          "name": "hunter",
          "type": "address"
        }
      ],
      "name": "HunterUnassigned",
      "type": "event"
    },
    {
      "anonymous": false,
      "inputs": [
        {
          "indexed": true,
          "internalType": "uint256",
          "name": "bountyId",
          "type": "uint256"
        },
        {
          "indexed": true,
          "internalType": "address",
          "name": "hunter",
          "type": "address"
        },
        {
          "indexed": false,
          "internalType": "uint256",
          "name": "amount",
          "type": "uint256"
        }
      ],
      "name": "PaymentReleased",
      "type": "event"
    },
    {
      "anonymous": false,
      "inputs": [
        {
          "indexed": true,
          "internalType": "uint256",
          "name": "bountyId",
          "type": "uint256"
        },
        {
          "indexed": false,
          "internalType": "uint256",
          "name": "fee",
          "type": "uint256"
        }
      ],
      "name": "PlatformFeePaid",
      "type": "event"
    },
    {
      "anonymous": false,
      "inputs": [
        {
          "indexed": true,
          "internalType": "uint256",
          "name": "bountyId",
          "type": "uint256"
        }
      ],
      "name": "SolutionApproved",
      "type": "event"
    },
    {
      "inputs": [
        {
          "internalType": "uint256",
          "name": "bountyId",
          "type": "uint256"
        }
      ],
      "name": "approveSolution",
      "outputs": [],
      "stateMutability": "nonpayable",
      "type": "function"
    },
    {
      "inputs": [
        {
          "internalType": "uint256",
          "name": "bountyId",
          "type": "uint256"
        }
      ],
      "name": "assignHunter",
      "outputs": [],
      "stateMutability": "nonpayable",
      "type": "function"
    },
    {
      "inputs": [
        {
          "internalType": "uint256",
          "name": "",
          "type": "uint256"
        }
      ],
      "name": "bounties",
      "outputs": [
        {
          "internalType": "address",
          "name": "org",
          "type": "address"
        },
        {
          "internalType": "address",
          "name": "hunter",
          "type": "address"
        },
        {
          "internalType": "uint128",
          "name": "amount",
          "type": "uint128"
        },
        {
          "internalType": "enum BountyEscrow.BountyStatus",
          "name": "status",
          "type": "uint8"
        }
      ],
      "stateMutability": "view",
      "type": "function"
    },
    {
      "inputs": [
        {
          "internalType": "uint256",
          "name": "bountyId",
          "type": "uint256"
        }
      ],
      "name": "fundBounty",
      "outputs": [],
      "stateMutability": "payable",
      "type": "function"
    },
    {
      "inputs": [],
      "name": "platform",
      "outputs": [
        {
          "internalType": "address",
          "name": "",
          "type": "address"
        }
      ],
      "stateMutability": "view",
      "type": "function"
    },
    {
      "inputs": [
        {
          "internalType": "uint256",
          "name": "bountyId",
          "type": "uint256"
        }
      ],
      "name": "refundBounty",
      "outputs": [],
      "stateMutability": "nonpayable",
      "type": "function"
    },
    {
      "inputs": [
        {
          "internalType": "uint256",
          "name": "bountyId",
          "type": "uint256"
        }
      ],
      "name": "unassignBounty",
      "outputs": [],
      "stateMutability": "nonpayable",
      "type": "function"
    }
  ],
  "bytecode": "0x60a06040523462000040576200001e62000018620000e4565b62000122565b604051610bec620001b582396080518181816101180152610a930152610bec90f35b600080fd5b634e487b7160e01b600052604160045260246000fd5b90601f01601f191681019081106001600160401b038211176200007d57604052565b62000045565b906200009a6200009260405190565b92836200005b565b565b6001600160a01b031690565b90565b620000b6816200009c565b036200004057565b905051906200009a82620000ab565b906020828203126200004057620000a891620000be565b620000a862000da180380380620000fb8162000083565b928339810190620000cd565b6200009c620000a8620000a89290565b620000a89062000107565b6200012c6200019e565b620001426200013c600062000117565b6200009c565b6200014d826200009c565b146200015857608052565b6040516344c7ef3760e11b8152600490fd5b620000a8620000a8620000a89290565b620000a860016200016a565b90620000a8620000a86200019a926200016a565b9055565b6200009a620001ac6200017a565b60006200018656fe6080604052600436101561001257600080fd5b60003560e01c80633758f039146100825780634bde38c81461007d57806358b1f29c1461007857806364d60766146100735780639846f8e21461006e578063c52b38cf146100695763dc2f874403610087576102b7565b610180565b610168565b610155565b61013d565b6100ff565b6100aa565b600080fd5b905035905b565b90602082820312610087576100a79161008c565b90565b34610087576100c26100bd366004610093565b610940565b604051005b0390f35b600091031261008757565b6001600160a01b031690565b6100eb906100d6565b9052565b60208101929161009191906100e2565b346100875761010f3660046100cb565b604051806100c77f0000000000000000000000000000000000000000000000000000000000000000826100ef565b34610087576100c2610150366004610093565b6108a9565b6100c2610163366004610093565b6103ab565b34610087576100c261017b366004610093565b6105b8565b34610087576100c2610193366004610093565b6104dd565b6100a76100a76100a79290565b906101af90610198565b600052602052604060002090565b6100a790546100d6565b6100a7905b6001600160801b031690565b6100a790546101c7565b6100a79060801c60ff1690565b6100a790546101e2565b6102049060016101a5565b9061020e826101bd565b9161021b600182016101bd565b916100a7600261022c8185016101d8565b93016101ef565b634e487b7160e01b600052602160045260246000fd5b6006111561025357565b610233565b9061009182610249565b6100a790610258565b6100eb90610262565b6102b0610091946102a0606094989795610296608086019a60008701906100e2565b60208501906100e2565b6001600160801b03166040830152565b019061026b565b34610087576100c76102d26102cd366004610093565b6101f9565b906102df94929460405190565b94859485610274565b906001600160a01b03905b9181191691161790565b6100a7906100d6906001600160a01b031682565b6100a7906102fd565b6100a790610311565b906103336100a761033a9261031a565b82546102e8565b9055565b6101cc6100a76100a79290565b906001600160801b03906102f3565b6100a7906101cc906001600160801b031682565b9061037e6100a761033a9261035a565b825461034b565b9060ff60801b9060801b6102f3565b906103a46100a761033a92610262565b8254610385565b346000916103b883610198565b82146104b5576001926103ce6100a783866101a5565b60028101946103dc866101ef565b6103ee6103e885610258565b91610258565b0361049f576104519561040861041f933395869101610323565b61041a6104148761033e565b8261036e565b610394565b6104497fa42a102b7be732c6c110f2a200de7ae4a49832e42c61c6c194cf1c94fbc5042e92610198565b93849161031a565b9161045b60405190565b600090a361049a7f1c39a31c24a302017459c2112dda7f9324a0952189c607e90effbbecda960d5e9161048d60405190565b9182918290815260200190565b0390a2565b604051635adf638760e01b8152600490fd5b0390fd5b60405163717e6b7b60e01b8152600490fd5b6100d66100a76100a79290565b6100a7906104c7565b60016104ec6100a783836101a5565b906104f9600283016101ef565b6105056103e883610258565b036105a657810190610516826101bd565b61053161052b61052660006104d4565b6100d6565b916100d6565b036105945761054f90610545338094610323565b6002809101610394565b61058261057c7f07773e4d2296ca7c4e54ff2ad70c370b2d5cce412f3c61ee9aea1815d6e3925693610198565b9161031a565b9161058c60405190565b80805b0390a3565b604051639688dc5160e01b8152600490fd5b604051639bce206360e01b8152600490fd5b6001906105c86100a782846101a5565b91336105d961052b610526866101bd565b03610691576105ea600284016101ef565b906002916105fa6103e884610258565b0361067f5761060a9084016101bd565b61061a61052b61052660006104d4565b1461066d57610091926106309160039101610394565b7f50d89681bd2e6a16c3d54291d2f5c15c18868432b866b15a226269e4285793a661065a82610198565b9061066460405190565b600090a2610bad565b60405163760064a160e01b8152600490fd5b60405163689f0d8360e01b8152600490fd5b6040516342b0692560e01b8152600490fd5b6106b4906106af6108ee565b610770565b61009161092e565b6100a79081906001600160801b031681565b634e487b7160e01b600052604160045260246000fd5b90601f01601f191681019081106001600160401b0382111761070557604052565b6106ce565b9061009161071760405190565b92836106e4565b6001600160401b03811161070557602090601f01601f19160190565b9061074c6107478361071e565b61070a565b918252565b3d1561076b576107603d61073a565b903d6000602084013e565b606090565b6001906107806100a782846101a5565b803361079161052b610526846101bd565b0361089757600201926107af6103e86107a9866101ef565b92610258565b03610885576107bd836101ef565b6005906107cc6103e883610258565b14610873576107ec906107e66107e1866101d8565b6106bc565b94610394565b6108136000806107fb846101bd565b6040518781805b03925af161080e610751565b501590565b61086157610820906101bd565b9061058f6108576108517ff1ed347f033f54c0d6f1589c933d81b4256cf2f72a785106e3653a565f7433a293610198565b9361031a565b9361048d60405190565b604051633c31275160e21b8152600490fd5b60405163542f378d60e11b8152600490fd5b6040516363b4339d60e01b8152600490fd5b604051630ec22de760e01b8152600490fd5b610091906106a3565b6100a79081565b6100a790546108b2565b6100a76002610198565b90600019906102f3565b906108e76100a761033a92610198565b82546108cd565b6108f860006108b9565b6109006108c3565b908114610912576100919060006108d7565b604051633ee5aeb560e01b8152600490fd5b6100a76001610198565b610091610939610924565b60006108d7565b600161094f6100a783836101a5565b808201913361096361052b610526866101bd565b036109dc57610974600283016101ef565b6002906109836103e883610258565b0361067f576109af926109a9610998866101bd565b956109a360006104d4565b90610323565b01610394565b61058261057c7fcfa2829b2bb20225c86c671b0bcd9e2b9026876d5c738b99415c775fb8fa3cf093610198565b6040516328d69d1960e11b8152600490fd5b6106b4906109fa6108ee565b610a24565b634e487b7160e01b600052601260045260246000fd5b8115610a1f570490565b6109ff565b906001610a346100a784836101a5565b906002820190610a43826101ef565b610a506103e86003610258565b03610b9b57610a616107e1836101d8565b92610a6e60048094610394565b610a8a610a84610a7e6014610198565b86610a15565b80950390565b93610ac36000807f0000000000000000000000000000000000000000000000000000000000000000610abb60405190565b858180610802565b610b7c57610b03949596610af77f93e7aaa64db1f3164fb844c7465be63c3d09a211e1307c3fe2a96a3f585d441591610198565b95869261048d60405190565b0390a20190610b22600080610b17856101bd565b604051888180610802565b610b5d5750610b30906101bd565b61058f6108577f21d71db5be59bb9fa133895586b7404307dd33fb93b16db09dc6f1d9d7d231b09261031a565b6104b190610b6a60405190565b6307a4ced160e51b8152918291820190565b6104b184610b8960405190565b634033e4e360e01b8152918291820190565b60405163c19f17a960e01b8152600490fd5b610091906109ee56fea2646970667358221220dcbdf9d940e03cc29bd2402db3d53f2eef4acb4f87df573fa43ca3c18f43641764736f6c63430008140033",
  "linkReferences": {},
  "deployedLinkReferences": {}
}