{
  "_format": "hh-sol-artifact-1",
  "contractName": "BountiFiBadge",
  "sourceName": "contracts/NFT.sol",
  "abi": [
    {
      "inputs": [],
      "stateMutability": "nonpayable",
      "type": "constructor"
    },
    {
      "inputs": [],
      "name": "AlreadyMinted",
      "type": "error"
    },
    {
      "inputs": [
        {
          "internalType": "address",
          "name": "sender",
          "type": "address"
        },
        {
          "internalType": "uint256",
          "name": "tokenId",
          "type": "uint256"
        },
        {
          "internalType": "address",
          "name": "owner",
          "type": "address"
        }
      ],
      "name": "ERC721IncorrectOwner",
      "type": "error"
    },
    {
      "inputs": [
        {
          "internalType": "address",
          "name": "operator",
          "type": "address"
        },
        {
          "internalType": "uint256",
          "name": "tokenId",
          "type": "uint256"
        }
      ],
      "name": "ERC721InsufficientApproval",
      "type": "error"
    },
    {
      "inputs": [
        {
          "internalType": "address",
          "name": "approver",
          "type": "address"
        }
      ],
      "name": "ERC721InvalidApprover",
      "type": "error"
    },
    {
      "inputs": [
        {
          "internalType": "address",
          "name": "operator",
          "type": "address"
        }
      ],
      "name": "ERC721InvalidOperator",
      "type": "error"
    },
    {
      "inputs": [
        {
          "internalType": "address",
          "name": "owner",
          "type": "address"
        }
      ],
      "name": "ERC721InvalidOwner",
      "type": "error"
    },
    {
      "inputs": [
        {
          "internalType": "address",
          "name": "receiver",
          "type": "address"
        }
      ],
      "name": "ERC721InvalidReceiver",
      "type": "error"
    },
    {
      "inputs": [
        {
          "internalType": "address",
          "name": "sender",
          "type": "address"
        }
      ],
      "name": "ERC721InvalidSender",
      "type": "error"
    },
    {
      "inputs": [
        {
          "internalType": "uint256",
          "name": "tokenId",
          "type": "uint256"
        }
      ],
      "name": "ERC721NonexistentToken",
      "type": "error"
    },
    {
      "inputs": [],
      "name": "EmptyTokenURI",
      "type": "error"
    },
    {
      "inputs": [],
      "name": "MaxSupplyExceeded",
      "type": "error"
    },
    {
      "anonymous": false,
      "inputs": [
        {
          "indexed": true,
          "internalType": "address",
          "name": "owner",
          "type": "address"
        },
        {
          "indexed": true,
          "internalType": "address",
          "name": "approved",
          "type": "address"
        },
        {
          "indexed": true,
          "internalType": "uint256",
          "name": "tokenId",
          "type": "uint256"
        }
      ],
      "name": "Approval",
      "type": "event"
    },
    {
      "anonymous": false,
      "inputs": [
        {
          "indexed": true,
          "internalType": "address",
          "name": "owner",
          "type": "address"
        },
        {
          "indexed": true,
          "internalType": "address",
          "name": "operator",
          "type": "address"
        },
        {
          "indexed": false,
          "internalType": "bool",
          "name": "approved",
          "type": "bool"
        }
      ],
      "name": "ApprovalForAll",
      "type": "event"
    },
    {
      "anonymous": false,
      "inputs": [
        {
          "indexed": false,
          "internalType": "uint256",
          "name": "_fromTokenId",
          "type": "uint256"
        },
        {
          "indexed": false,
          "internalType": "uint256",
          "name": "_toTokenId",
          "type": "uint256"
        }
      ],
      "name": "BatchMetadataUpdate",
      "type": "event"
    },
    {
      "anonymous": false,
      "inputs": [
        {
          "indexed": false,
          "internalType": "uint256",
          "name": "_tokenId",
          "type": "uint256"
        }
      ],
      "name": "MetadataUpdate",
      "type": "event"
    },
    {
      "anonymous": false,
      "inputs": [
        {
          "indexed": true,
          "internalType": "address",
          "name": "from",
          "type": "address"
        },
        {
          "indexed": true,
          "internalType": "address",
          "name": "to",
          "type": "address"
        },
        {
          "indexed": true,
          "internalType": "uint256",
          "name": "tokenId",
          "type": "uint256"
        }
      ],
      "name": "Transfer",
      "type": "event"
    },
    {
      "inputs": [],
      "name": "MAX_SUPPLY",
      "outputs": [
        {
          "internalType": "uint256",
          "name": "",
          "type": "uint256"
        }
      ],
      "stateMutability": "view",
      "type": "function"
    },
    {
      "inputs": [
        {
          "internalType": "address",
          "name": "to",
          "type": "address"
        },
        {
          "internalType": "uint256",
          "name": "tokenId",
          "type": "uint256"
        }
      ],
      "name": "approve",
      "outputs": [],
      "stateMutability": "nonpayable",
      "type": "function"
    },
    {
      "inputs": [
        {
          "internalType": "address",
          "name": "owner",
          "type": "address"
        }
      ],
      "name": "balanceOf",
      "outputs": [
        {
          "internalType": "uint256",
          "name": "",
          "type": "uint256"
        }
      ],
      "stateMutability": "view",
      "type": "function"
    },
    {
      "inputs": [
        {
          "internalType": "uint256",
          "name": "tokenId",
          "type": "uint256"
        }
      ],
      "name": "getApproved",
      "outputs": [
        {
          "internalType": "address",
          "name": "",
          "type": "address"
        }
      ],
      "stateMutability": "view",
      "type": "function"
    },
    {
      "inputs": [
        {
          "internalType": "address",
          "name": "",
          "type": "address"
        }
      ],
      "name": "hasMinted",
      "outputs": [
        {
          "internalType": "uint8",
          "name": "",
          "type": "uint8"
        }
      ],
      "stateMutability": "view",
      "type": "function"
    },
    {
      "inputs": [
        {
          "internalType": "address",
          "name": "owner",
          "type": "address"
        },
        {
          "internalType": "address",
          "name": "operator",
          "type": "address"
        }
      ],
      "name": "isApprovedForAll",
      "outputs": [
        {
          "internalType": "bool",
          "name": "",
          "type": "bool"
        }
      ],
      "stateMutability": "view",
      "type": "function"
    },
    {
      "inputs": [],
      "name": "name",
      "outputs": [
        {
          "internalType": "string",
          "name": "",
          "type": "string"
        }
      ],
      "stateMutability": "view",
      "type": "function"
    },
    {
      "inputs": [
        {
          "internalType": "uint256",
          "name": "tokenId",
          "type": "uint256"
        }
      ],
      "name": "ownerOf",
      "outputs": [
        {
          "internalType": "address",
          "name": "",
          "type": "address"
        }
      ],
      "stateMutability": "view",
      "type": "function"
    },
    {
      "inputs": [
        {
          "internalType": "string",
          "name": "uri",
          "type": "string"
        }
      ],
      "name": "safeMint",
      "outputs": [],
      "stateMutability": "nonpayable",
      "type": "function"
    },
    {
      "inputs": [
        {
          "internalType": "address",
          "name": "from",
          "type": "address"
        },
        {
          "internalType": "address",
          "name": "to",
          "type": "address"
        },
        {
          "internalType": "uint256",
          "name": "tokenId",
          "type": "uint256"
        }
      ],
      "name": "safeTransferFrom",
      "outputs": [],
      "stateMutability": "nonpayable",
      "type": "function"
    },
    {
      "inputs": [
        {
          "internalType": "address",
          "name": "from",
          "type": "address"
        },
        {
          "internalType": "address",
          "name": "to",
          "type": "address"
        },
        {
          "internalType": "uint256",
          "name": "tokenId",
          "type": "uint256"
        },
        {
          "internalType": "bytes",
          "name": "data",
          "type": "bytes"
        }
      ],
      "name": "safeTransferFrom",
      "outputs": [],
      "stateMutability": "nonpayable",
      "type": "function"
    },
    {
      "inputs": [
        {
          "internalType": "address",
          "name": "operator",
          "type": "address"
        },
        {
          "internalType": "bool",
          "name": "approved",
          "type": "bool"
        }
      ],
      "name": "setApprovalForAll",
      "outputs": [],
      "stateMutability": "nonpayable",
      "type": "function"
    },
    {
      "inputs": [
        {
          "internalType": "bytes4",
          "name": "interfaceId",
          "type": "bytes4"
        }
      ],
      "name": "supportsInterface",
      "outputs": [
        {
          "internalType": "bool",
          "name": "",
          "type": "bool"
        }
      ],
      "stateMutability": "view",
      "type": "function"
    },
    {
      "inputs": [],
      "name": "symbol",
      "outputs": [
        {
          "internalType": "string",
          "name": "",
          "type": "string"
        }
      ],
      "stateMutability": "view",
      "type": "function"
    },
    {
      "inputs": [
        {
          "internalType": "uint256",
          "name": "tokenId",
          "type": "uint256"
        }
      ],
      "name": "tokenURI",
      "outputs": [
        {
          "internalType": "string",
          "name": "",
          "type": "string"
        }
      ],
      "stateMutability": "view",
      "type": "function"
    },
    {
      "inputs": [],
      "name": "totalSupply",
      "outputs": [
        {
          "internalType": "uint256",
          "name": "",
          "type": "uint256"
        }
      ],
      "stateMutability": "view",
      "type": "function"
    },
    {
      "inputs": [
        {
          "internalType": "address",
          "name": "from",
          "type": "address"
        },
        {
          "internalType": "address",
          "name": "to",
          "type": "address"
        },
        {
          "internalType": "uint256",
          "name": "tokenId",
          "type": "uint256"
        }
      ],
      "name": "transferFrom",
      "outputs": [],
      "stateMutability": "nonpayable",
      "type": "function"
    }
  ],
  "bytecode": "0x60806040523462000026576200001462000154565b604051611959620003aa823961195990f35b600080fd5b634e487b7160e01b600052604160045260246000fd5b90601f01601f191681019081106001600160401b038211176200006357604052565b6200002b565b90620000806200007860405190565b928362000041565b565b6001600160401b0381116200006357602090601f01601f19160190565b90620000b5620000af8362000082565b62000069565b918252565b620000c6600d6200009f565b6c426f756e74694669426164676560981b602082015290565b620000e9620000ba565b90565b620000f860066200009f565b6542424144474560d01b602082015290565b620000e9620000ec565b90600019905b9181191691161790565b620000e9620000e9620000e99290565b9062000148620000e9620001509262000124565b825462000114565b9055565b6200017362000162620000df565b6200016c6200010a565b9062000181565b620000806001600762000134565b9062000080916200038f565b634e487b7160e01b600052602260045260246000fd5b9060016002830492168015620001c6575b6020831014620001c057565b6200018d565b91607f1691620001b4565b9160001960089290920291821b911b6200011a565b9190620001fb620000e9620001509362000124565b908354620001d1565b6200008091600091620001e6565b8181106200021e575050565b806200022e600060019362000204565b0162000212565b9190601f81116200024557505050565b620002596200008093600052602060002090565b906020601f8401819004830193106200027d575b6020601f90910104019062000212565b90915081906200026d565b9060001960089091021c191690565b81620002a39162000288565b906002021790565b90620002b5815190565b906001600160401b0382116200006357620002dd82620002d68554620001a3565b8562000235565b602090601f831160011462000310576200015092916000918362000304575b505062000297565b015190503880620002fc565b601f198316916200032685600052602060002090565b9260005b8181106200036a575091600293918560019694106200034d575b50505002019055565b6200035f910151601f84169062000288565b905538808062000344565b919360206001819287870151815501950192016200032a565b906200008091620002ab565b90620003a16200008092600062000383565b60016200038356fe6080604052600436101561001257600080fd5b60003560e01c806301ffc9a71461012257806306fdde031461011d578063081812fc14610118578063095ea7b31461011357806318160ddd1461010e57806323b872dd1461010957806332cb6b0c1461010457806338e21cce146100ff57806342842e0e146100fa5780636352211e146100f5578063695850fb146100f057806370a08231146100eb57806395d89b41146100e6578063a22cb465146100e1578063b88d4fde146100dc578063c87b56dd146100d75763e985e9c50361012757610706565b6106c8565b6106ac565b610582565b61052f565b610514565b6104fb565b610488565b61046f565b610440565b6103a2565b610369565b61030d565b6102ef565b61028f565b61021c565b610173565b600080fd5b6001600160e01b03191690565b6101428161012c565b0361012757565b9050359061015682610139565b565b906020828203126101275761016c91610149565b90565b9052565b34610127576101a161018e610189366004610158565b610f80565b6040515b91829182901515815260200190565b0390f35b600091031261012757565b60005b8381106101c35750506000910152565b81810151838201526020016101b3565b6101f46101fd602093610207936101e8815190565b80835293849260200190565b958691016101b0565b601f01601f191690565b0190565b602080825261016c929101906101d3565b346101275761022c3660046101a5565b6101a16102376108a6565b6040519182918261020b565b80610142565b9050359061015682610243565b906020828203126101275761016c91610249565b6001600160a01b031690565b61016f9061026a565b6020810192916101569190610276565b34610127576101a16102aa6102a5366004610256565b6108c5565b6040519182918261027f565b6101428161026a565b90503590610156826102b6565b91906040838203126101275761016c906102e681856102bf565b93602001610249565b34610127576103086103023660046102cc565b906108ba565b604051005b346101275761031d3660046101a5565b6101a1610328611906565b6040515b9182918290815260200190565b90916060828403126101275761016c61035284846102bf565b9361036081602086016102bf565b93604001610249565b346101275761030861037c366004610339565b91610949565b61016c61016c61016c9290565b61016c612710610382565b61016c61038f565b34610127576103b23660046101a5565b6101a161032861039a565b906020828203126101275761016c916102bf565b61016c9061026a906001600160a01b031682565b61016c906103d1565b61016c906103e5565b90610401906103ee565b600052602052604060002090565b61016c916008021c5b60ff1690565b9061016c915461040f565b61016c9061043b6008916000926103f7565b61041e565b34610127576101a161045b6104563660046103bd565b610429565b6040519182918260ff909116815260200190565b3461012757610308610482366004610339565b916109fe565b34610127576101a16102aa61049e366004610256565b6107a5565b909182601f83011215610127578135916001600160401b03831161012757602001926001830284011161012757565b906020828203126101275781356001600160401b038111610127576104f792016104a3565b9091565b346101275761030861050e3660046104d2565b9061156b565b34610127576101a161032861052a3660046103bd565b610749565b346101275761053f3660046101a5565b6101a16102376108b0565b801515610142565b905035906101568261054a565b91906040838203126101275761016c9061057981856102bf565b93602001610552565b346101275761030861059536600461055f565b906108d8565b634e487b7160e01b600052604160045260246000fd5b90601f01601f191681019081106001600160401b038211176105d257604052565b61059b565b906101566105e460405190565b92836105b1565b6001600160401b0381116105d257602090601f01601f19160190565b90826000939282370152565b90929192610628610623826105eb565b6105d7565b938185526020850190828401116101275761015692610607565b9080601f830112156101275781602061016c93359101610613565b906080828203126101275761067281836102bf565b9261068082602085016102bf565b9260409261069081858401610249565b936001806060850135921b0381116101275761016c9201610642565b34610127576103086106bf36600461065d565b92919091610a0e565b34610127576101a16102376106de366004610256565b61105e565b91906040838203126101275761016c906106fd81856102bf565b936020016102bf565b34610127576101a161018e61071c3660046106e3565b906108f6565b61026a61016c61016c9290565b61016c90610722565b61016c9081565b61016c9054610738565b610753600061072f565b61075c8161026a565b6107658361026a565b1461077e575061077961016c9160036103f7565b61073f565b6107a19061078b60405190565b6322718ad960e21b81529182916004830161027f565b0390fd5b61016c90610f25565b634e487b7160e01b600052602260045260246000fd5b90600160028304921680156107e4575b60208310146107df57565b6107ae565b91607f16916107d4565b8054600093929161080b610801836107c4565b8085529360200190565b916001811690811561085d575060011461082457505050565b6108379192939450600052602060002090565b916000925b8184106108495750500190565b80548484015260209093019260010161083c565b92949550505060ff1916825215156020020190565b9061016c916107ee565b906101566108969261088d60405190565b93848092610872565b03836105b1565b61016c9061087c565b61016c600061089d565b61016c600161089d565b610156913391610d35565b61016c906108d281610f25565b50610a43565b610156919033610e8a565b61016c90610418565b61016c90546108e3565b61016c9161091161091692610909600090565b5060056103f7565b6103f7565b6108ec565b604090610942610156949695939661093b60608401986000850190610276565b6020830152565b0190610276565b90610954600061072f565b61095d8161026a565b6109668361026a565b146109b7575061097890833391610ab0565b6109818261026a565b61098a8261026a565b0361099457505050565b6107a1906109a160405190565b6364283d7b60e01b81529384936004850161091b565b6107a1906109c460405190565b633250574960e11b81529182916004830161027f565b906109e7610623836105eb565b918252565b61016c60006109da565b61016c6109ec565b909161015692610a0c6109f6565b925b90610156939291610a20838383610949565b33611199565b9061040190610382565b61016c9061026a565b61016c9054610a30565b610a5a61016c91610a52600090565b506004610a26565b610a39565b90600019905b9181191691161790565b90610a7f61016c610a8692610382565b8254610a5f565b9055565b906001600160a01b0390610a65565b90610aa961016c610a86926103ee565b8254610a8a565b90610b03610abd82610bf0565b936000610ac98161072f565b9184610ad48461026a565b610add8361026a565b03610bdf575b5050610aee8261026a565b610af78761026a565b03610ba4575b5061026a565b610b0c8361026a565b03610b74575b610b2682610b21836002610a26565b610a99565b7fddf252ad1be2c89b69c2b068fc378daa952ba7f163c4a11628f55a4df523b3ef91610b63610b5d610b57866103ee565b926103ee565b92610382565b92610b6d60405190565b600090a490565b610b9f610b816001610382565b610b99610b8f8560036103f7565b916102078361073f565b90610a6f565b610b12565b610bb090828581610d3f565b610bd9610bbd6001610382565b610b99610bcb8860036103f7565b91610bd58361073f565b0390565b38610afd565b610be99188610c26565b3884610ae3565b610a5a61016c91610bff600090565b506002610a26565b916020610156929493610c2260408201966000830190610276565b0152565b610c38610c34848484610caa565b1590565b610c4157505050565b610c5c610c56610c51600061072f565b61026a565b9161026a565b03610c88576107a182610c6e60405190565b637e27328960e01b81529182916004830190815260200190565b6107a1610c9460405190565b63177e802f60e01b815292839260048401610c07565b90610cb8610c51600061072f565b610cc18261026a565b14159283610cd0575b50505090565b90919250610cdd8261026a565b610ce68461026a565b14928315610d21575b508215610d01575b5050388080610cca565b610d19919250610d13610c5691610a43565b9261026a565b143880610cf7565b610d2e91935082906108f6565b9138610cef565b9091610156926001925b92919091808115610e4c575b610d61575b505090610b21610156926004610a26565b610d6a83610f25565b91610d78610c51600061072f565b610d818261026a565b141580610e32575b80610e1f575b610dfc575091610b21916101569493610dab575b509192610d50565b610dd57f8c5be1e5ebec7d5bd14f71427d1e84f3dd0314c0f7b2291e5b200ac8c7c3b925916103ee565b610dde856103ee565b90610de884610382565b92610df260405190565b600090a438610da3565b6107a190610e0960405190565b63a9fbf51f60e01b81529182916004830161027f565b50610e2d610c3482856108f6565b610d8f565b50610e3c8161026a565b610e458461026a565b1415610d89565b50610e5a610c51600061072f565b610e638361026a565b1415610d4b565b9060ff90610a65565b90610e8361016c610a8692151590565b8254610e6a565b610e97610c51600061072f565b610ea08361026a565b14610f0257610ebd83610eb8846109118560056103f7565b610e73565b610efd610ef3610eed7f17307eab39ab6107e8899845ad3d59bd9653f200f220920489ca2b5937696c31936103ee565b936103ee565b9361019260405190565b0390a3565b6107a182610f0f60405190565b630b61174360e31b81529182916004830161027f565b610f2e81610bf0565b90610f3c610c51600061072f565b610f458361026a565b14610f4e575090565b6107a190610c6e60405190565b610f6e610f6861016c9290565b60e01b90565b61012c565b61016c6349064906610f5b565b610f8b610f6e610f73565b610f948261012c565b14908115610fa0575090565b61016c9150610fb56380ac58cd60e01b61012c565b610fbe8261012c565b14908115610fdb575b8115610fd1575090565b61016c915061137e565b9050610fed635b5e139f60e01b61012c565b610ff68261012c565b1490610fc7565b6102076110159260209261100f815190565b94859290565b938491016101b0565b61102c9061016c9392610ffd565b90610ffd565b61105292916101569161104460405190565b94859260208401928361101e565b908103825203836105b1565b61106781610f25565b5061107b611076826006610a26565b61089d565b611083611113565b805160009061109861109483610382565b9190565b146110c5576110ab611094610b5d855190565b116110bb57505061016c906110cc565b61016c9250611032565b5050905090565b6110d581610f25565b506110de611113565b80516000906110ef61109483610382565b111590506111095761110361016c926112f3565b90611032565b505061016c6109f6565b61016c6109f6565b9050519061015682610139565b906020828203126101275761016c9161111b565b909261116d9061116661016c969461115c60808601976000870190610276565b6020850190610276565b6040830152565b60608184039101526101d3565b3d15611194576111893d6109da565b903d6000602084013e565b606090565b92949360009390833b6111ae61109487610382565b116111bd575b50505050509050565b6111f985859796986112046111dc6111d7602098996103ee565b6103ee565b9463150b7a02926111ec60405190565b998a988997889660e01b90565b86526004860161113c565b03925af1849181611276575b5061124957505061121f61117a565b9161122e611094610b5d855190565b03611240576107a1906109c460405190565b50602081519101fd5b90925061126561125f630a85bd0160e11b61012c565b9161012c565b036109b757508038808080806111b4565b61129891925060203d811161129f575b61129081836105b1565b810190611128565b9038611210565b503d611286565b369037565b906101566112c16112bb846109da565b936105eb565b601f1901602084016112a6565b634e487b7160e01b600052601260045260246000fd5b81156112ee570490565b6112ce565b6112fc81611395565b9061130c60019261020784610382565b9180611317846112ab565b936020850101905b6113295750505090565b61135d9060001901926f181899199a1a9b1b9c1cb0b131b232b360811b600a82061a8453611357600a610382565b906112e4565b908161136c6110946000610382565b146113795790918161131f565b610cca565b61139161125f6301ffc9a760e01b61012c565b1490565b61139f6000610382565b9072184f03e93ff9f4daa797ed6e38ed64bf6a1f0160401b6113c081610382565b821015611511575b506904ee2d6d415b85acef8160201b6113e081610382565b8210156114ef575b50662386f26fc100006113fa81610382565b8210156114cd575b506305f5e10061141181610382565b8210156114ab575b5061271061142681610382565b821015611489575b50606461143a81610382565b821015611467575b50611450611094600a610382565b10156114595790565b61016c906102076001610382565b6114829161135761147792610382565b916102076002610382565b9038611442565b6114a49161135761149992610382565b916102076004610382565b903861142e565b6114c6916113576114bb92610382565b916102076008610382565b9038611419565b6114e8916113576114dd92610382565b916102076010610382565b9038611402565b61150a916113576114ff92610382565b916102076020610382565b90386113e8565b61152c9161135761152192610382565b916102076040610382565b90386113c8565b61041861016c61016c9290565b61041861016c61016c9260ff1690565b90610e8361016c610a8692611540565b61016c913691610613565b90611576600761073f565b61158461109461016c61038f565b1161164e578060009161159961109484610382565b1461163c5760089033926115c36115bc6115b661091687876103f7565b92611533565b9160ff1690565b0361162a576101569361161f611624936115fd956115e1600761073f565b9687926115f8836115f26001611533565b926103f7565b611550565b61161a61161361160d600761073f565b60010190565b6007610a6f565b611660565b611560565b90611896565b604051631bbdf5c560e31b8152600490fd5b6040516317314b6160e01b8152600490fd5b604051638a164f6360e01b8152600490fd5b6101569161166c6109f6565b9190610156929161167d828261168e565b33611688600061072f565b90611199565b90611699600061072f565b916116a38361026a565b6116ac8261026a565b146116f3576116bc918391610ab0565b6116c8610c568361026a565b036116d05750565b6107a1906116dd60405190565b6339e3563760e11b81529182916004830161027f565b6107a1836109c460405190565b9160001960089290920291821b911b610a65565b919061172561016c610a8693610382565b908354611700565b61015691600091611714565b818110611744575050565b80611752600060019361172d565b01611739565b9190601f811161176757505050565b61177961015693600052602060002090565b906020601f84018190048301931061179b575b6020601f909101040190611739565b909150819061178c565b9060001960089091021c191690565b816117be916117a5565b906002021790565b906117cf815190565b906001600160401b0382116105d2576117f2826117ec85546107c4565b85611758565b602090601f831160011461182057610a86929160009183611815575b50506117b4565b01519050388061180e565b601f1983169161183585600052602060002090565b9260005b8181106118745750916002939185600196941061185a575b50505002019055565b61186a910151601f8416906117a5565b9055388080611851565b91936020600181928787015181550195019201611839565b90610156916117c6565b906118ab906118a6836006610a26565b61188c565b6118d97ff8e1a15aba9398e019f0b49df1a4fde98ee17ae345cb5f6b5e2c27f5033e8ce79161032c60405190565b0390a1565b634e487b7160e01b600052601160045260246000fd5b9190820391821161190157565b6118de565b61016c611913600761073f565b61191d6001610382565b906118f456fea264697066735822122026ad247a2a3d7b7a6222d64db4a22b7e5eedfb1d4e981ade0ccbf838d2375d0e64736f6c63430008140033",
  "linkReferences": {},
  "deployedLinkReferences": {}
}